:020000040800F2
:10000000301000209D080008B1050008890800088C
:100010008908000889080008890800080000000015
:100020000000000000000000000000007D09000842
:10003000890800080000000025090008951600083E
:10004000B90A0008B90A0008B90A0008B90A000884
:10005000B90A0008B90A0008B90A0008B90A000874
:10006000B90A0008B90A0008B90A0008B90A000864
:10007000B90A0008B90A0008B90A0008B90A000854
:10008000B90A0008B90A0008B90A0008B90A000844
:10009000B90A0008B90A0008B90A0008B90A000834
:1000A000B90A0008B90A0008B90A0008B90A000824
:1000B000B90A0008B90A0008B90A0008B90A000814
:1000C000B90A0008B90A0008B90A0008B90A000804
:1000D000B90A0008B90A0008B90A0008B90A0008F4
:0C00E000B90A0008B90A0008B90A0008B3
:0400EC00FFFFFFFF14
:1000F00053B94AB9002908BF00281CBF4FF0FF318F
:100100004FF0FF3000F00CB8ADF1080C6DE904CEF3
:1001100000F008F8DDF804E0DDE9022304B07047E0
:10012000704700BF2DE9F04786468C4608461546C5
:1001300074461946089E002B40F0C2808542B2FAF0
:1001400082F245D94AB1C2F1200300FA02FC2EFA2C
:1001500003F3954043EA0C0C94404FEA154EBCFB68
:10016000FEF8A8B20EFB18CC08FB00F9230C43EAFA
:100170000C43994528D9EB1808F1FF3704D299456B
:1001800002D9A8F102072B44A3EB0903B3FBFEFC41
:100190000EFB1C330CFB00F0A4B244EA0344A04263
:1001A00014D92C190CF1FF3304D2A04202D9ACF1BE
:1001B00002032C44241A43EA07401EB10023D44012
:1001C00034607360BDE8F0874746DDE76346F1E7DA
:1001D00092BB0121431B4FEA154EB3FBFEFCAFB2AD
:1001E0000EFB1C330CFB07F8200C40EA0343984538
:1001F00062D9EB180CF1FF3004D2984502D9ACF16A
:1002000002002B44A3EB0803B3FBFEFC0EFB1C33E4
:100210000CFB07F7A4B244EA0344A7424ED92C19B9
:100220000CF1FF3304D2A74202D9ACF102032C44F3
:10023000E41B43EA0040C0E7C2F12003954020FAE6
:1002400003F12EFA03F34FEA154EB1FBFEFC90408A
:100250000343AFB20EFB1C100CFB07F8190C41EA6C
:100260000041884504FA02F422D969180CF1FF30E4
:1002700004D2884502D9ACF102002944A1EB08015F
:10028000B1FBFEFC0EFB1C110CFB07F79BB243EA13
:1002900001439F420ED9EB180CF1FF3104D29F426B
:1002A00002D9ACF102012B44DB1B41EA004192E789
:1002B0006046E3E76146F7E76046A3E76346B7E7D2
:1002C000834206D916B9002108467BE7C6E900E05B
:1002D000F9E7B3FA83F78FB9834201D3724508D89F
:1002E000BEEB020460EB030301209C461EB9002113
:1002F00068E73846FAE7C6E9004CF8E7C7F1200C92
:10030000BB4022FA0CF41C434FEA144920FA0CF3C8
:10031000B3FBF9F8B8402EFA0CF101430EFA07F5D9
:1003200009FB18301FFA84FE08FB0EFA0B0C43EA97
:1003300000439A4502FA07F240D9E31808F1FF306A
:1003400004D29A4502D9A8F102002344A3EB0A0380
:10035000B3FBF9F809FB183308FB0EFE89B241EA3A
:1003600003418E452CD9611808F1FF3304D28E4524
:1003700002D9A8F10203214443EA0040A0FB0298FD
:10038000A1EB0E014145CE46434602D306D14D4571
:1003900004D2B9EB020E68EB04030138002EA6D09C
:1003A000B5EB0E0261EB030101FA0CFC22FA07F334
:1003B0004CEA0303F940C6E9003198E74046C5E737
:1003C0004346D9E7000000002DE9F04F054687B00D
:1003D000234F0421BB683846029304AA5B68984700
:1003E000002833DBDDE9044A42F21073A4FB03B2B8
:1003F00003FB0A234FF0FF390393584616A3D3E9B2
:1004000000230399FFF774FEDFF85880039BD9455A
:1004100078EB0303064619D30FA3D3E90023A5FB0A
:1004200004B405FB0A4458462146FFF761FED9454E
:1004300078EB0404034609D3864207D300220092D6
:10044000029A0421146838463246A04707B0BDE836
:10045000F08F00BFAFF3008000CA9A3B000000009D
:10046000C4350008FFC99A3B70B5134A134C144DAC
:10047000117823682868134E91B1632B08D8FFF7D1
:10048000A3FF23682868013323603368184405E01C
:100490000021013B117023603368C01A286070BDD1
:1004A00033B1FFF791FF23682868013B2360F3E72E
:1004B000012313702360E8E7880000200002002079
:1004C000080200200402002013B50C4C204602F064
:1004D0006FFE30B921680A4802B0BDE8104002F052
:1004E0000FBB6422074B1A60C82200230648CDE9DF
:1004F000002302F003F802B010BD00BFC4350008AD
:10050000B639000804020020B8000020014B1B6827
:10051000184700BF00000020014B1860704700BF63
:100520000000002030B585B004460D4610220021A1
:10053000684602F07EFF02238DF80230044B2A4603
:1005400021466846019302F019F805B030BD00BF9E
:100550000D05000880B505460E461746984601F081
:10056000FBFD034602F06EFF0446DFF8189042469A
:1005700049F8003039463046A84754F8090000F0E1
:10058000A3F900BF08000000024B034A00201A60D4
:10059000704700BF7C00002000127A00034A002050
:1005A000536823F002035360704700BF002004E04B
:1005B00008B5034B1B689847BDE8084000F034B805
:1005C0000400002030BFFFF7FDBF00BF114B124AEF
:1005D0002DE9F041D518013DB5FBF3F5DFF83C807E
:1005E0005D430F4B074608EB0304013CB4FBF3F4F7
:1005F00003FB04540E1B30460A4902F00CFF70192D
:1006000042460021083E02F014FF7E6604F1080015
:10061000BDE8F081010000000000000004000000BF
:100620000400000044370008044B99685869884268
:1006300003D003494FF080520A607047FC0200204B
:1006400004ED00E0134B9A6A12F0007F9A6A14BF1F
:100650001E201D2012F0807F9A6A18BF1F2012F4FE
:10066000002F9A6A18BF212012F4802F9A6A18BFAF
:10067000222012F4003F9A6A18BF232012F4803F10
:100680009A6A18BF24206FEA02426FEA12429A6205
:10069000704700BF00ED00E010B5164B9A6A9C6AE7
:1006A00012F4805F14BF1722162214F4006F9C6AA4
:1006B00018BF1822A40509D59A6B9A6A120404D5AA
:1006C00018B19A6A22F400429A621922094B986A78
:1006D00010F4806F986A18BF1A2210F4807F986A0D
:1006E00040F47F4098624FF000030CBF10461B207F
:1006F0000B7010BD00ED00E010B5154B0246986A76
:100700009C6A10F0100F14BF1120102014F0080F75
:100710009C6A18BF1220A40709D5586B986A000676
:1007200004D51AB19A6A22F080029A621320084B0B
:100730009A6A12F0010F9A6A18BF1420D20658BFA5
:100740009A6A9A6A42F0FF029A6200230B7010BD07
:1007500000ED00E0F0B5474B04465B6800258BB028
:10076000C3F3080385F31188BFF36F8F02F07F4056
:10077000B0F17F4F11D102F00C0008280DD0100706
:100780004CBF0C4601250022033B8DF80720032BAC
:1007900005D8DFE803F02462665F2C46F3E7002308
:1007A0009DF80720CAB902AE04F12007324620683E
:1007B0006168083403C2BC421646F7D1099A002D7D
:1007C00053D0C2F3080121B96FEA52226FEA4222E4
:1007D0000992184602A902F0A1F90BB0F0BD254B11
:1007E000DA6A9107DBD4DA6A002AD8DBDA6A5200C7
:1007F000D5D55A69A16942F480725A61BFF34F8F0F
:10080000BFF36F8F5A6931F8021C22F480725A616B
:10081000BFF34F8FBFF36F8F4DF60272914209D035
:100820009A6AD2B242B101200DF10701FFF764FFCD
:100830000346B5E72368B3E79A6A12F47F4F05D001
:1008400001200DF10701FFF727FFF1E79B6AB3F5E0
:10085000803FA4D3FFF7F6FEEAE700200DF1070181
:10086000E4E700200DF10701EDE722F4FF7222F02A
:100870000102ADE700ED00E0024A536943F01003C6
:100880005361704700ED00E0EFF30880EFF309815A
:1008900001B57246FFF75EFF01BD00BF102080F377
:1008A000118808484FF40061401880F30988EFF37D
:1008B00014800221084380F31488BFF36F8F00F087
:1008C00091F8000030030020084B9B6883420BD155
:1008D000EFF3058343B1064B5A6842F080525A60E9
:1008E0005A6A22F400425A6202F0EDBCFC02002077
:1008F00000ED00E06FF00A01084A9368D9660849E4
:1009000098664B6843F080534B60002383F3118853
:10091000BFF36F8F9368D86E704700BFFC02002052
:1009200000ED00E012498A684FF030001044EFF308
:10093000098C80E8F01F102080F31288BFF36F8FBE
:100940000C4F4FF000664A698A603E604FF06404C5
:1009500014192068084C2060906E0023936680F381
:10096000118802F1300090E8F01F8CF3098870477D
:10097000FC02002004ED00E00C0200201EF0040F39
:100980000CBFEFF30880EFF30980816911F8021CB6
:100990000229FFD001B502F0C3F801BD40B2002822
:1009A00007DB01234109034A00F01F00834042F89E
:1009B0002130704700E100E040B2002801F1010160
:1009C000ACBF00F16040064B4FEA0111C9B2ABBFAA
:1009D00000F5614000F00F0080F8001319547047D3
:1009E00014ED00E008B5094B094A23F0604323F0F9
:1009F0007F039360BFF34F8FBFF36F8F01F0AAF8AF
:100A000001F0B0FB00F04CF801F0F2F80000000833
:100A100000ED00E042F8203C009B0B4942F81C3CF2
:100A2000019B21F0010142F8183C029B42F8081C8E
:100A300042F8143C4FF0807342F8043C0023203A03
:100A400002658366704700BF55050008084B986033
:100A5000406E084B1860104681F30988002163B688
:100A600081F31188BFF36F8F00220023FFF772FD1F
:100A7000FC0200200C020020014910220A6070478D
:100A800010ED00E072B6404080F31188BFF36F8F25
:100A9000BFF34F8F30BF62B6BFF36F8F704700BF99
:100AA000002310210348C21801332B2B82F80013B6
:100AB000F9D1704700E100E001B5EFF30580A0F146
:100AC00010004FEAC0000449014409C99847BDE835
:100AD0000140024908470000EC35000829060008DB
:100AE00008B5024B1B689847002008BD1002002083
:100AF000034B044A1860937843F0020393707047E5
:100B0000100200200800002008B50649064821F020
:100B10000701C1F1005202F5A04201F0B2FF00202E
:100B200008BD00BF37100020140200202DE9F0415D
:100B3000054600244FF001080D4E0E4F2B78E2B20F
:100B400098181F280DDC726908FA00F333EA0202D4
:100B500007D1736157F830301BB107EBC002516801
:100B600098476A780134E3B29A42E7D2BDE8F0814F
:100B70000004014020020020044B184400230133EC
:100B8000994200F8012BFADC704700BF8900002071
:100B900010B4064B024618560123054993400C68D1
:100BA00023430B6010BCFFF7F9BE00BF8900002093
:100BB000000401401F2806DC0122034982400B6823
:100BC00023EA02030B6070470004014003292AD87E
:100BD000DFE801F0020E141F0122134B82409968D6
:100BE00021EA02019960D96821EA0202DA607047BD
:100BF00001220D4B824099681143F3E701220A4B11
:100C00008240D9681143D960996821EA02029A604A
:100C10007047012303FA00F0034B9A6802439A607D
:100C2000DA681043D86070470004014030B50A4BC1
:100C300053F830408C4204D103EBC0056D689542F7
:100C400005D034B943F8301003EBC0035A600020DC
:100C500030BD6FF00F00FBE7200200200022034BA5
:100C600043F8302003EBC0035A6070472002002095
:100C70000E4B18680B68052B0BD883B1023B032B76
:100C800003D8DFE803F01102020300201060002007
:100C90007047182BFAD01C2B04D0142BF6D06FF011
:100CA000850070474008F1E70148EFE77C0000202D
:100CB00000127A00F8B501F0EFFF00F0B1FD334CFF
:100CC000334A63681578C3F30313D35C314F20FABA
:100CD00003F647FA05F5AE4202D2284600F0BEFE02
:100CE000236823F480232360236843F48033236044
:100CF00023689803FCD5636803F00C03082B15D117
:100D00002368990706D4236843F00103236023680E
:100D10009A07FCD5636823F003036360636813F0EC
:100D20000C0FFBD1636823F0F0036360236823F0AA
:100D30008073236000F032F8236843F080732360EF
:100D400023689B01FCD5636823F0F003636063684C
:100D500023F0030343F002036360636803F00C03B2
:100D6000082BFAD1AE4202D3284600F077FE0A4B98
:100D700000201F60636823F4E06343F480636360D2
:100D8000636823F460536360F8BD00BF0010024045
:100D9000B23A000800A24A047C000020054A5368C9
:100DA00023F47C1343F4E8135360536823F4800363
:100DB000536070470010024008B5074802F0F8F988
:100DC00038B10648FFF794FE0448FFF7A5FB002062
:100DD00008BD6FF01200FBE7B0350008E10D000818
:100DE0000A2838B50446074D04D1AB680D212846C2
:100DF0005B689847AB6803485B68E1B29847204658
:100E000038BD00BFB035000838B5036904465860E6
:100E1000084D284602F0CCF940B16168AB6828461D
:100E20001B680C31984700EAE07038BD6FF0120083
:100E3000FBE700BFE8340008F8B51746B7F5001F18
:100E40000C461D464668026923D10F2301F00302B8
:100E500004329200934043EA9103DAB22C49023201
:100E600051F82220190C02EA134391FAA1F2B2FAC6
:100E700082F2D340B2689A4209D12046FFF79AFE27
:100E80002046FFF7EBFE00212046FFF79FFE0020E3
:100E9000F8BDB7F5800F35D020461E49FFF7C6FED6
:100EA00098BB0F2204F0030304339B009A4042EAEC
:100EB0009402D3B29B0003F1804303F58033B16801
:100EC0009E68100C26EA124690FAA0F2B2FA82F25C
:100ED00001FA02F23243B5F1806F9A600ED0B5F19B
:100EE000C06F0DD005F17E4359425941490020465B
:100EF000FFF76CFE2046FFF74BFEC8E70121F6E73F
:100F00000321F4E76FF08500C2E76FF00F00BFE741
:100F100000000140B12D00082DE9F34703680446A5
:100F2000C3F38F25C3F38923FBB101228A4223D364
:100F3000334A15F0010F906940F001009061926909
:100F40004FEA132002F001020192019A2D4AC3F3E5
:100F5000440300FA03F009BF5368D369034343F025
:100F6000E06316BF03435360D361274F04EBC10610
:100F7000A6420ED1002007E054F83200C0F38920C9
:100F8000984204D06FF0150002B0BDE8F08701323E
:100F9000CCE7D4E9002512F003090FD145F0410553
:100FA000C2F3870AC2F383120A2AEBD857F82280C9
:100FB000B8F1000F13D16FF01200E5E7B9F1020F9D
:100FC000EED0B9F1010F07D115F4C07F0CBF45F089
:100FD000020545F00405E3E745F00105E0E740467A
:100FE00002F0E6F80028E6D04B462A4640460AF0D2
:100FF0000F0101F082FF002804F10804B8DAC3E70A
:101000000010024000000140CC37000840291AD0EF
:1010100011D8042919D0102919D0012908BF00239B
:1010200018BF06230C49026AC85C022383401340A0
:1010300023FA00F07047B1F5807F0AD0B1F5806FD8
:1010400008BF0523ECE70323ECE70123EAE70223CB
:10105000E8E70423E6E700BF5C3A00082DE9F04723
:1010600001F1FF3C88B0BCF1030F1F46BDF84060A2
:10107000446800F2DF80B2F5803F00F2DE80704B02
:10108000042953F82C5006F4807A0DD1BAF1000FE0
:1010900040F0D0802846D146A2B92268136A23EADC
:1010A00000031362002074E0664B53F82C90BAF1F1
:1010B000000F05D0B9F1000F00F0BC804846EBE707
:1010C0002846E9E7A36863BB02F1FF38216806F010
:1010D00001060B6A760030EA030339D1402800F09C
:1010E000A1802DD8042800F09F80102800F09E8059
:1010F000012808BF002318BF062353480A6AC05CB2
:101100000223834022EA030386401E434F4B0E62B4
:1011100053F82C303946206898472368C3F82C8050
:10112000C0E7102B01D1013FCEE723F04001202979
:1011300002D0402B40F081807F084FEA5208C5E77B
:10114000B0F5807F74D0B0F5806F08BF0523D2E77B
:10115000684602F022F8602300930123BAF1000FE1
:101160001AD002930596236829461B6A35EA0303C1
:101170000CBF0123002301932068FFF747FF049071
:1011800003976A462946206800F0A0FBB8B16FF0CB
:10119000040008B0BDE8F08701930496B9F1000F90
:1011A000EED0236849461B6A39EA03030CBF0123CA
:1011B000002302932068FFF729FF0590E0E72268EB
:1011C000402D136843F080031360226822D019D8A1
:1011D000042D21D0102D21D0012D18BF06201C4B2D
:1011E0001832195C1B4B5558185C082383402B435D
:1011F00053502368C3F82C802268536943F00103DD
:1012000053614FE7B5F5807F0AD0B5F5806F08BF11
:101210000520E2E70320E2E70120E0E70220DEE725
:101220000420DCE7032368E7012366E7022364E781
:10123000042362E76FF01500ABE76FF08500A8E7C5
:101240007C380008703800085C3A000860380008F4
:101250006A3A0008633A00082DE9F04186B0066951
:1012600044682F4D284601F0A3FF002852D0D5F83E
:10127000088004F10C0739462846D8F80030984712
:10128000002804DBD8F80C3023B96FF0570006B003
:10129000BDE8F0813946284601AA98470028F6DBC8
:1012A000D6E90101E268019B1C2A08BF5B0033609C
:1012B0008368DB6803B198470021606901AA01F0E7
:1012C00031FE0028E3DB019B002219791868FFF743
:1012D00023FE0028DBDB01A801F056FF636801A9AB
:1012E000ADF80430A36802930023CDE903332068EE
:1012F00000F0BCFA88B923680A4A0020934202BF72
:101300005A6C42F400425A642268136843F00103A5
:101310001360BCE76FF01200B9E76FF00400B6E7A6
:10132000E8340008002C0140F8B50C460369416818
:101330005E682379012B33D09A1E55425541AD0288
:101340006279022A96BF354F4FF4005C37F812C01D
:10135000A279042A27D0003B18BF01231B03E2799E
:10136000012A0A680CBF4FF440770027A642D168D3
:101370001CD121F4B05129430B43D360136923F4EA
:10138000405343EA0C03136143681A68536923F41A
:1013900040733B4353613168BDE8F84001F029BE1A
:1013A0004FF4C065CCE74FF48053D8E701F4C06137
:1013B0008D421FBFD16821F4C0612943D1604268CA
:1013C00011680A6902F4405294451FBF0A6922F469
:1013D000405242EA0C020A6142681168CA6802F48B
:1013E000805293421FBFCA6822F480521343CB60DD
:1013F00043681A68536903F440739F421FBF5369DF
:1014000023F440733B43536121683368994203D00E
:1014100001F0EFFD23683360F8BD00BFB03900086C
:101420002DE9F0410C4603694768D3F804800B7935
:10143000A579012B497936D102294FD9042D4AD0FB
:101440004FF480564FF4C06203238B4243D1002EE9
:101450007CD0002A14BF03220422AA423BD1E379A4
:101460006BB1012B37D13B683B4A934207D0A2F5C1
:101470007442934203D002F5806293422BD13A68C2
:101480002146D36823F40053D360FFF74DFF3A6839
:10149000D36843F40053D36094E8030088E8030062
:1014A0000020BDE8F081022B08D1022921D9042DAA
:1014B00011D04FF480624FF48056C5E702290A46E6
:1014C0001FD9042D04D133B94FF480561A46BBE717
:1014D00063BB0329C1D06FF08500E2E71F4A042DEA
:1014E00032F811C0F7D04FF4C062033B012B10D883
:1014F000F1E71A4A042D32F811C0ECD04FF48062A3
:10150000F3E7164A042D32F811C016D1002BE2D1B0
:101510001A464FF48056BCF5805F13D0BCF5405F8F
:1015200012D0BCF1000F8FD101238EE7033B012BBA
:10153000D1D90022BFE70022D7E7002BFBD11A4602
:101540001E46E8E7002380E702237EE7002A14BF57
:101550000222032281E700BF00380140B0390008B1
:1015600073B50546446806692848306001F020FEDE
:1015700018B96FF0120002B070BD3068E16883687E
:101580001B6898470028F6DB0021206A01AA01F0B9
:10159000C9FC0028EFDB019B002219791868FFF7CE
:1015A000BBFC0028E7DB6C682B6922685E68D368A7
:1015B00023F40053D360606801F0FAFD0028D8D00E
:1015C000D4E901018368DB6803B19847226802F11E
:1015D0000C0353E8003F43F00C0302F10C0040E819
:1015E00000310029F3D131462846FFF79DFE237DC7
:1015F00023B12268536943F0080353612268002035
:10160000D36843F40053D360B5E700BFE834000863
:101610004FF0E02310B50F499C691A6908689B696F
:101620000D4902F4803234B993B903464AB90A68C5
:101630001044C01A10BD002B08BF03460AB9A342CC
:10164000F5D90A6802440A604FF0E0221269EEE719
:101650000446F3E7F4020020F002002010220A4BB7
:10166000002083F823204FF4E152084B1A60084B06
:1016700041F61F4218604FF0E0235A6198611A69E1
:1016800042F007021A61704700ED00E0F40200200A
:10169000F002002010B5FFF7BBFF1049104B08689F
:1016A000D3E90042001942F10002C3E9000200231D
:1016B0000B604FF4E1530B4AD2E90041001BB0FB31
:1016C000F3F043431B1941F10001C2E9003100F07E
:1016D0001FFEBDE81040FEF7A7BF00BFF0020020CC
:1016E000F8000020F00000202DE9F041DFF8E08054
:1016F00099B1421C0BD14FF0E022136923F0010392
:1017000013614FF07F43C8F80030BDE8F081D8F88E
:101710000060012807DC00270BE0431CD8F80060BC
:10172000F7D140F6191040F61A139842A8BF184690
:10173000471E4FF01003EFF3118583F31288BFF3B8
:101740006F8FFFF765FF4FF0E023224C9969D4E9D2
:10175000002380184FF0000243F10003C4E90003A6
:101760001D4B1A601D4B1A68831A2ED44FF4E15C8E
:101770000CFB073303F5E0531F33B3FBFCF7131ADD
:101780000CFB0733B3F5806F38BF4FF48063144A06
:10179000934228BF13464FF0E022C8F80030013BC7
:1017A00090695361002381429361A1EB000338BF2C
:1017B0009B19D4E900125B1842F10002C4E900321F
:1017C00085F31188BFF36F8F9FE74FF48063E2E7E3
:1017D000F4020020F8000020F0020020F0000020B9
:1017E00020DFFF0038B54FF01003EFF3118583F3CE
:1017F0001288BFF36F8F084B1C68084B1B68E41AF4
:10180000FFF706FF85F31188BFF36F8F4FF4E153A5
:101810002044B0FBF3F038BDF8000020F0000020B9
:101820000D4A536803F00C01082912D10B48C3F389
:101830008341DB03405C09D55368094AC3F3404345
:101840005043084AD35CB0FBF3F07047064B584353
:1018500070470348704700BF00100240C43A0008B8
:1018600000127A00C23A000800093D00164A0368D7
:1018700090420AD0B0F1804F07D0A2F59432904246
:1018800003D002F58062904217D14A6823F07003BA
:101890001343CA6823F44073134303608B68C36225
:1018A0000B888362084B984201D10B69036343693B
:1018B00043F0010343610020704703608B68C362FB
:1018C0000B888362F3E700BF002C0140B1F5807FF5
:1018D00030B500F08F8005D8012929D0102957D0C4
:1018E000012030BDB1F5805FFAD1036A23F4805343
:1018F0000362036A4468C169156821F4E64141EA5C
:101900000521156923F4005343EA0533556823F490
:10191000805343EA0533504DA84202BF956924F431
:10192000804444EA85144460C161D26802642CE0BA
:10193000036A23F001030362036A4168846915683E
:1019400024F073042C43156923F002032B435568DC
:1019500023F001032B43404DA84212D1556923F0D7
:10196000080343EA8503956823F0040343EA8503EB
:10197000956921F480712943D56921F4007141EA08
:10198000450141608461D268426303620020A8E798
:10199000036A23F010030362036A416884691568CF
:1019A00024F4E64444EA0524156923F0200343EABD
:1019B0000513556823F0100343EA0513264DA8428A
:1019C00013D1556923F0800343EA8513956823F00A
:1019D000400343EA8513956921F4806141EA85015A
:1019E000D56921F4006141EAC50141608461D26892
:1019F0008263CAE7036A23F480730362036A41685F
:101A0000C469156824F073042C43156923F400732A
:101A100043EA0523556823F4807343EA05230E4DFA
:101A2000A84213D1556923F4006343EA85239568DE
:101A300023F4806343EA8523956921F4805141EAC8
:101A40000511D56921F4005141EA45114160C46195
:101A5000D268C26399E700BF002C0140D8B10F4B98
:101A6000984216D80E4B984294BF002001200D4A90
:101A7000136823F0070303431360136803F007039D
:101A800098421CBF136803F00703C01A18BF012057
:101A900070470220EBE70120704700BF006CDC02BA
:101AA00000366E010020024038B54FF01003EFF30E
:101AB000118583F31288BFF36F8F064B9C6801F08A
:101AC0008BFB85F31188BFF36F8F2046BDE838404C
:101AD000FEF7FABEFC020020104B70B553F8204010
:101AE000013053F82060A64200D870BDD4E900351B
:101AF00095B153B12846984738B10028B8BF404245
:101B0000FF28A8BFFF20EB681870EA68537843F0FD
:101B1000010353700834E6E79847FBE7983900085B
:101B2000012208B5094B03201A70FFF7D5FF00F01A
:101B30001FFD0420FFF7D0FF00F0F8F8FEF7C4FC0B
:101B4000034A137B23F00103137308BD2C03002009
:101B50007001002008B50348034A0021121A01F061
:101B60003EFB08BDF000002030030020702370B55C
:101B7000194E012203FB0066002386B0CDE9042341
:101B80000F220193CDE9023214230446134D144968
:101B900003FB005501EB0021124B4FF480723046DD
:101BA000009500F08BF8737B2C7423F0040373739F
:101BB0000D4B013403EBC4236B60EE60BFF35B8F0E
:101BC0000A4B53E8001F013143E80012002AF8D104
:101BD000BFF35B8F06B070BD00010020FC02002047
:101BE000300B00200933000830030020F8020020E9
:101BF00080B50020A2B0FFF76FFF294B83F3088860
:101C0000284C00256369284E43F400736361F02378
:101C100084F82230E57725766576A57684F820501D
:101C2000636A224F43F4E0236362FEF725FEFEF76A
:101C300023FF4FF0FF33A362E36240F20113ADF8DC
:101C4000243006ABB3601E9501F0B1FA0120FFF716
:101C500043FF0220164CFFF73FFF00F075FA154BCB
:101C600074610593012314494FF48062CDE9035355
:101C700020463B46CDE90155009500F01FF8064689
:101C8000627B204622F00402627301F0BEFA28460D
:101C9000FFF76CFF3A4631462046FEF7D7FE00BFFD
:101CA000300B002000ED00E0FC020020211B0008AA
:101CB00070010020D43A0008300C00202DE9FF41CB
:101CC000984600F15803C0E916330E9B00260373B3
:101CD0000423D51D437325F007050D9B0D440F46C6
:101CE00083732946C0E906668660C6730446FEF71C
:101CF0006DFC0C9B073002930B9B20F007000193B7
:101D00000A9B2D1A00932A46434639462046FEF781
:101D100081FE054B66659B6803B11B6E28462366F2
:101D200004B0BDE8F08100BFFC02002070B5224C79
:101D3000224D86B02646AE4204F130040AD300F0AC
:101D4000D3F91D4C1E4EAC4220D306B0BDE8704006
:101D500000F0DEB954F80C3C059354F8103C0493A1
:101D600054F8143C039354F8183C029354F81C3C68
:101D7000019354F8203C009354E90A2354E90C01E0
:101D8000FFF79CFF54F8303C5E65D3E7D4E90A23A3
:101D9000B3F1FF3F08BFB2F1FF3F05D052EA0301A4
:101DA000206803D100F082F93034CCE73146183096
:101DB00000F038FAF8E700BF44370008443700085D
:101DC00093320008C3897F2B12D80A4B1B6863B17A
:101DD000094B90F90E201B689A4209DB437BDB0616
:101DE00006D1064BC31A18BF012303F00100704748
:101DF0000023FAE724030020200300200001002034
:101E00000122044BC01A044BC0105843034B1A5410
:101E1000704700BFE0010020ABAAAAAA2D03002052
:101E200070B50E4B0E4C1E7C182303FB0644054672
:101E3000204601F075FA00220A4B28469A55FFF712
:101E4000C1FF48B1084B2046BDE870401A680749F9
:101E5000013AD31700F0E6B970BD00BFFC020020C4
:101E6000E00100202D03002024030020011E0008B3
:101E700038B50D4D2B4653F8184F9C4200D004B98D
:101E8000EC68AB6838B95A7BD20604D1A26912B9A2
:101E9000DA897F2A05D89C4202D02046FFF7C0FF8E
:101EA00023466B6138BD00BFFC02002070B590F97D
:101EB0000D200146002A437B04DA03F07F034373BD
:101EC00001F091F9154A4B7B104663F07F034B7389
:101ED00050F8183FD469834208BF002323B9C1E9F1
:101EE00000042160D1610CE091F90E5093F90E606D
:101EF000B5420ED0AE420CDD5868C1E90030016039
:101F000059609068BDE87040431A58425841FFF745
:101F1000AFBF9C42E3D01B68E0E700BFFC0200209B
:101F200070B490F90D30427B002B29DBD30627D10A
:101F300083692BBB134962F07F0242730A4652F851
:101F4000184F944218BF2346CC6923B9C0E9002436
:101F50002060C8610CE090F90E5093F90E60B54214
:101F60000AD0AE4208DD5A68C0E9003210605860FD
:101F7000002070BCFFF77CBFA342E7D01B68E4E7FA
:101F800070BC7047FC020020002A2DE9F0410E468B
:101F90000CBF10210821437B044619420AD10B4390
:101FA000DD0903F09F0211D14273082914D00120EA
:101FB000FFF75EFF1B4B9B68A3422CD1EFF3058319
:101FC0004BBB3046BDE8F041FEF794BC03F01F0365
:101FD000437301F008F9E8E7A36813B1204601F064
:101FE0000AF904F1180001F09BF94FF0000804F120
:101FF0005807A56DBD42DAD0002DD8D0284601F093
:10200000FAF805F1180001F08BF92846C5F86C8044
:10201000FFF786FFEDE786F31188BFF36F8FBDE80A
:10202000F08100BFFC02002038B54FF01003EFF341
:10203000118583F31288BFF36F8F104B104A9C6891
:102040001068A04206D1FFF7EBFE85F31188BFF3BD
:102050006F8F38BD00211B7C11600A4AD35C002BB6
:10206000F3D02046FFF7AEFE0028EED0637BDB0600
:1020700002D12046FFF71AFF2046E4E7FC020020C9
:102080001C0300202D03002049B9EFF3058030B96F
:10209000054B5A699B689A4201D0FEF72BBC81F32D
:1020A0001188BFF36F8F7047FC02002010B54FF00E
:1020B0001002EFF3118482F31288BFF36F8F427B1B
:1020C000510704D484F31188BFF36F8F10BD22F041
:1020D00004024273FFF724FF2146BDE81040014887
:1020E000FFF7D2BF2E0300204FF01003EFF3118152
:1020F00083F31288BFF36F8F044B9A68D37B013B45
:10210000D37381F31188BFF36F8F7047FC020020F7
:1021100010B54FF01003EFF3118483F31288BFF36F
:102120006F8F084B00209A68D37B0133D373FFF77E
:102130009FFE84F31188BFF36F8FBDE8104001F05C
:10214000B8B800BFFC020020024B03F11802C3E93B
:1021500006227047FC020020014B9868704700BFC0
:10216000FC02002008B50648064A0749121A01F089
:1021700038F8BDE80840054A0549064801F031B87D
:1021800000000020F00000202C3B000800000000B0
:102190002C3B000800000020034B1B680BB9FFF725
:1021A00021BB0020704700BF2803002010B50E4B54
:1021B0001C689C4204D1FFF7EFFF6FF0004010BD98
:1021C000FFF7EAFF002CF8D0D4E904321B1A62EBC7
:1021D000E072B3F1004F72F10001EEDA002AACBFF9
:1021E00018460020EBE700BF8000002030B570B13A
:1021F0000B4B5B6898420AD0036843B1D3E90421D2
:10220000D0E90445121941EB0501C3E90421D0E9E5
:10221000003213605A600023C0E9003330BD00BFB4
:1022200080000020B3F1FF3F08BFB2F1FF3FF8B5D7
:1022300004461D4616465CD081604FF01003EFF354
:10224000118783F31288BFF36F8F013275F1FF336B
:1022500024DA6FF001032C49D1E900209B1A4FF0DA
:10226000FF3262EB00009E1B60EB0500012E70F157
:10227000000301DA01260020C4E90460234ED6F8E9
:1022800000C07568B44508BF4FF0000CBCF1000FEA
:102290000DD1C4E900652C6074601CE0FFF77CFF81
:1022A000013645F10005361845EBE070E4E7DCE95E
:1022B0000420D4E90431934271EB000E1ADAD21AE9
:1022C000DCF8043060EB0100CCE90420C4E900C371
:1022D0001C60CCF804403368B34206D09C4204D161
:1022E000FFF764FF0021FFF7FFF987F31188BFF3C1
:1022F0006F8FF8BD9B1A61EB0001AC45C4E9043156
:10230000C7D0DCF800C0C1E7F80100208000002041
:102310002DE9F84F4FF01003EFF3118C83F312887F
:10232000BFF36F8FDFF8B0A0DFF8B0900024C9F8DA
:102330000000DAF800000025504508BF0020284FB3
:10234000E046D7E90021D9F8003080B3D0E9046C29
:102350004FEAE37EB3427EEB0C0B05DAF61A6CEB28
:102360000E04C0E9046422E0B21841EBE671C0E952
:102370000445C7E90021FFF739FF88F31188BFF34F
:102380006F8F836898474FF01003EFF3118883F342
:102390001288BFF36F8FD9F80030DAF800009B1B6A
:1023A0005045C446C9F80030CAD1D7E900210024FD
:1023B0009A1841EBE373C7E90023C9F80040FFF71F
:1023C000F5FE2146FFF790F988F31188BFF36F8F70
:1023D000BDE8F84FFFF728BE80000020280300204A
:1023E000F801002010B54FF01003EFF3118483F3D0
:1023F0001288BFF36F8FFFF7CFFE0346054AD2E97D
:102400000001181841EBE37184F31188BFF36F8F5B
:1024100010BD00BFF8010020F8B504464FF01003CE
:10242000EFF3118783F31288BFF36F8F026822B135
:1024300087F31188BFF36F8FF8BDD0E90A36581CB7
:1024400046F10001022871F1000127D3012B76F13A
:102450000001BCBF012316465D1E46F1FF3600F0A9
:1024600075FF013041F10001401946EB01010128DF
:1024700071F100013ADB00F069FF013041F1000128
:102480006FF00102401946EB01034FF0FF31121AC1
:1024900061EB030320461849FFF7C4FE236B0133A9
:1024A0002363236A73B187F31188BFF36F8F2046CC
:1024B000236A98474FF01003EFF3118783F31288D4
:1024C000BFF36F8F54F8185FA542B1D0002DAFD085
:1024D000284600F0AAFE0023EB6687F31188BFF3BD
:1024E0006F8F2846BDE8F84000F08FBE6FF0010204
:1024F0004FF0FF33CEE700BF192400082DE9F0416B
:1025000005461C4690461F464FF01003EFF3118618
:1025100083F31288BFF36F8FB4F1FF3F08BFB2F1AE
:10252000FF3F05D186F31188BFF36F8FBDE8F081BF
:10253000531C74F1FF3309DB012A74F10003BCBFA3
:102540000122002412F1FF3844F1FF37284600F041
:10255000E7FEDDE906010023C5E90A012B634246D7
:102560003B4628460149FFF75DFEDBE719240008DA
:10257000014800F0C5BA00BFD93A00082DE9F04F74
:1025800043688DB00293837815469A07824640F1DE
:10259000078100240E78002E00F00481252E0BD038
:1025A0004B1C0393013451463046029B9847002848
:1025B000C0F2F6800399EDE74E788B1C252E03932D
:1025C000F0D00027B846BB46BBF11F0F38D8A6F1A4
:1025D0002003102B0AD8DFE803F02A090930090983
:1025E000092109090928092D09091F00A6F130034D
:1025F000092B33D92A2E37D11BF0400F55F8043B55
:1026000040F08280002BA7BF98464BF0200BC3F10F
:1026100000084BF0280B01E04BF0010B039B13F873
:10262000016B0393002ECFD130E04BF0020B4BF047
:10263000040BF3E74BF0080BF0E74BF0100BEDE762
:10264000BBF17F0F19D8A6F13003092BD2D81BF0AC
:10265000400F03D00A2101FB0737DFE70A214BF0C7
:10266000200B01FB0838D9E72E2E06D11BF0400FB6
:1026700040F098804BF0400BD0E76C2E31D02BD837
:10268000682E36D06A2E3CD04C2E3AD0002F46F021
:102690002003B8BF2BF04002A3F16501BCBF0027A7
:1026A0001FFA82FB022901D9612B2FD10727073599
:1026B00025F00705DFF89C9208351BF0080F66D05F
:1026C0004E4609EB070B5E4563D1A4EB090906EB07
:1026D0000902A8EB070869E1742E9FD07A2E9DD0DD
:1026E000D4E71BF0800F18BF4BF4007B4BF0800B3E
:1026F00094E71BF4807F18BF4BF4007B4BF4807B86
:102700008CE74BF4207B89E71F4687E7A6F163013E
:10271000122900F2EA80DFE811F013004900E80016
:10272000E800E800E8004900E800E800E800E80008
:10273000E800F800E300E800E8001B00E800A9005A
:1027400055F8043B01278DF818300DF11809B4E74E
:1027500055F8049B804BB9F1000F08BF99461BF058
:10276000400F14BF39464FF0FF31484600F0F0FDEE
:102770000746A2E751462020029B984700280FDB1E
:10278000013EB742F6D34444A41BB04698E7464600
:10279000F7E7514616F8010B029B9847002892DA9A
:1027A0004FF0FF3420460DB0BDE8F08F1BF0800FD6
:1027B00034D01BF4007F2CD0073525F00705A9463F
:1027C000696859F8080B2BF010050029ADB237DA0B
:1027D000404261EB410145F480650A230DF1180B7D
:1027E0005A4600F0C1FDA0EB0B0301936B0662D5C6
:1027F000019B25F001019F4289B240F3A180002E88
:1028000000F0998015F0100240F09C80BB460D4608
:1028100023E0A94659F8040BC117D4E7A9461BF4D5
:10282000807F59F8041B01D10846F5E71BF4007FAF
:1028300015BF48B208B241F3C01141F3C031C2E73D
:1028400050EA0103C9D11BF0400FC6D0002FC4D1FC
:102850002BF01102BB4695B2019740F2064115EAF2
:1028600001021CBF00220BF1010B2CE00A232BF00C
:1028700010021FFA82FB1BF0800C49D01BF4007180
:102880001DBF073525F00705A946A9461ABF59F807
:10289000080B696859F8040B50EA010545D12BF083
:1028A00016051BF0400FADB242D0002F40D12BF0E7
:1028B000170295B2019715F0100248D0019B002E27
:1028C00042D103F1010B29075AD4EB0706D5D845AD
:1028D0006FDDA8EB0B03C34601995F185B4649E027
:1028E000102378264BF0100BC5E7782B04D1C6F1E6
:1028F000780343F01003BEE751462520029B98471A
:102900000028FFF64DAF02344DE608230026B2E75B
:10291000A9461BF4807159F8040BBDD01BF400715B
:102920001ABF6146C0B280B2B6E72BF0060295B27C
:102930000DF1180B54E725F01105BB46ADB28CE73D
:102940000D46B8E73B460D4603F1020BBBE7DDF849
:1029500004B082E7223B00081B3B0008CDE90432AB
:1029600051462020029B98470028FFF619AF049B90
:10297000059A01339845F1DCA4EB0B019B46CC187A
:102980000AB351463020029B98470028FFF608AF53
:102990008EB901342744019B391B8B4223DB1D4632
:1029A00055BB4D46019AA8EB0B08224414469044AF
:1029B00034E0019F92E7514630460234029B98472B
:1029C0000028E7DAECE640F206410D42E2D015F0CD
:1029D000020F14BF2B20202015F4806F514618BF22
:1029E0002D200134EAE751463020029B9847002809
:1029F00004F10104CFDAD3E606AB013D585D514640
:102A0000029B98470028CBDACAE651462020029B59
:102A10009847002804F10104FFF6C2AEA8EB0403B6
:102A2000002BF2DCC6E500BF704700EBC100408818
:102A300040087047F8B50346FFF7F7FFB0FA80F09B
:102A4000C0F11F0003EB800CDCF81060CA00171DFA
:102A50000C4606328DB256B9012101FA00F0D96850
:102A60000143D960CCF81040DD539D52F8BDF10010
:102A70000431585AD85303EBC0009E52C5805D52B2
:102A8000F4E7043A2DE9F041CC1D114424F0070489
:102A900021F007010E1BF708B7FA87F24FF0000884
:102AA000C2F12405AD000735C2F12002ED08046033
:102AB0004146A760C4F80C80920004F1100000F0B9
:102AC000B8FC6B0043F0010363807B1B04EBC50281
:102AD0005900A4F800805180A21924F83550A2F8BA
:102AE0000280A35304EBC7035A88294642F001022F
:102AF0005A802046BDE8F041FFF79CBF0020704798
:102B00000FB407B504A951F8040B0191FDF70AFDB4
:102B100003B05DF804EB04B070477047FEF7C4BF24
:102B200001460068FEF7C0BF00210120FFF7F6BF95
:102B300008B5FDF7D5FF002008BD08B50622012124
:102B40000020FEF719F8002206201146FDF734FF99
:102B5000012107220846FEF70FF800220720114640
:102B6000FDF72AFF082201210220FEF705F80022C6
:102B700008201146FDF720FF092201210320FDF75F
:102B8000FBFF002209201146FDF716FF0A22012152
:102B90000420FDF7F1FF00220A201146FDF70CFF8B
:102BA000052117220846FDF7E7FF002217201146EE
:102BB000FDF702FF282206210A20FDF7DDFF002293
:102BC00028201146FDF7F8FE002008BD0B68A3F190
:102BD0001402082A9FBF03F1804303F504331A68E7
:102BE00049689BBF00200A436FF085001A60704758
:102BF0000B68A3F11402082A9FBF03F1804303F579
:102C000004331A6849689BBF00208A436FF085002F
:102C10001A6070470868A0F11403082B0AD800F165
:102C2000804000F5043002684B68934314BF0120D4
:102C300002207047022803D005280CBF0220012083
:102C4000704710B50B68022B01D0052B21D14A68C3
:102C5000FF2A1CD0D3B203F1804303F50433186874
:102C6000C2F34234C2F3042204FA02F220EA02025E
:102C70001A604968CBB203F1804303F50433186846
:102C8000C1F30242C1F304218A4002431A600020CA
:102C900010BD6FF08500FBE77047436800205B685C
:102CA0009B680B60704743685B68D86842400A4085
:102CB0004240DA6000207047436800205B68196179
:102CC0007047436800205B68596170474368002083
:102CD0005A68D3684B40D360704710B50369986851
:102CE000F8B1884219D1DC680868A142986000D127
:102CF000D860002008602AB19A680A60DA68996092
:102D000002B9D960002010E0814206D10868206035
:102D1000D8688142EDD1DC60EBE70446006800280A
:102D2000F2D1002AE8D16FF0150010BD91FAA1F39D
:102D3000B3FA83F370B50D0E0F2691FAA1F1B1FA33
:102D400081F144599B0006FA03F3890024EA030445
:102D50008A402243425170BD91FAA1F3B3FA83F342
:102D600070B50D0E032691FAA1F1B1FA81F1445923
:102D70009B0006FA03F3890024EA03048A402243F5
:102D8000425170BD91FAA1F3B3FA83F370B50D0E01
:102D9000042691FAA1F1B1FA81F144599B0006FA97
:102DA00003F3890024EA03048A402243425170BDA0
:102DB00070B50B46896821B101255E680C688540B5
:102DC00001B970BD8A682A4002D030464B689847E6
:102DD0001CB1236821461C46F2E72346FAE770B58A
:102DE00001241546072904FA01F2C8BF01F00701C2
:102DF0004FEA0223C5BF8C401C4342EA030444F05F
:102E00008064EA07406822D415F0060204D1214606
:102E1000BDE87040FFF78ABF022A01D10422F6E71D
:102E200005F4C075802D6FEA14264FEA14220BD1E9
:102E300092FAA2F20123B2FA82F2C16893403140C1
:102E40000B430822C360E2E7C3683340F9E76B062F
:102E500054BF012209222146FFF768FF15F0200226
:102E600018BF0422214605F01805FFF78BFF082D37
:102E700005D102222146BDE87040FFF76DBF0DB9B4
:102E80000122F7E70322F5E713469A0310B518D598
:102E90009C070FD55A072DD52122DC060CD542F010
:102EA000840213F4002F44681BD0012364688B4014
:102EB000236111E00122F0E79C06F2D542F4827210
:102EC000EFE713F4803207D0DC0611D413F0200FA3
:102ED00014BF4FF4827202224068FFF780FF002087
:102EE00010BD5B03F8D5012364688B406361F3E791
:102EF0008422F1E76FF08500F2E7F8B51F4604463B
:102F000040680E461546FFF76AFF032F08D10123DC
:102F100003FA06F66368AA055B684CBF1E615E6132
:102F20000020F8BD30B5036813600579046804EB30
:102F3000C504A34202D36FF0010030BD5C798C421E
:102F400001D00833F0E70020F7E741637047816361
:102F50007047C163704701647047416803694968FD
:102F60001B680131B3FBF1F30020C2E90030704768
:102F70004368C1F34B101B6801F01F01C0580123C7
:102F80008B40034214BF01230023002013707047BD
:102F900010B54368C1F34B101A680123845801F03F
:102FA0001F018B4023438350002010BD012210B528
:102FB0004368C1F34B14186801F01F0123588A407D
:102FC00023EA02032350002010BD38B504460D4605
:102FD000FFF7DEFF29462046FFF7E8FF002038BD57
:102FE000036882B00193019B43680193019B02B087
:102FF000704737B50369456818680C468368E96807
:10300000DB68BBB101AA9847002813DB1922019B9A
:10301000A40053436422B3FBF4F1B1FBF2F002FBD2
:1030200010131B013233B3FBF2F32D6803EB0013D3
:103030009BB2AB6003B030BD08B541680B681A683D
:103040001868C2F3C002C007186848BF42F0020205
:103050008007186848BF42F004024007186848BF5C
:1030600042F02002C00542BF6FF4807042F00802B7
:103070001860D00702D50868FFF7B2FF930702D5A2
:103080000868FFF7ADFF500702D50868FFF7A8FFF3
:10309000930602D50868FFF7A3FF104608BD10B5D8
:1030A0004068026813681B06FCD54FF01002EFF36E
:1030B000118382F31288BFF36F8F026814682406AD
:1030C00004D483F31188BFF36F8FEAE7516083F371
:1030D0001188BFF36F8F10BD08B543681868036887
:1030E0001A0701D5FFF77CFF03689B0649BF4368B9
:1030F0004FF0FF3000200B7008BD03695B681B6850
:103100000B6043681B68DB6803F4C063B3F5806F32
:103110002FD0A3F5C06CDCF1000343EB0C030B7163
:1031200043681B681B6903F44053B3F5805F22D0EA
:10313000B3F5405F21D0002B0CBF012303234B715B
:1031400043681B68DA68DB68D20403F4C06316D5F1
:10315000002B14BF032304238B71436800201B68DA
:103160005B6903F44073A3F5407253425341CB7142
:1031700070470223D3E70023E1E70223DFE7002BB8
:1031800014BF02230323E7E700234FF0FF3203803D
:10319000C0E902234360036170470023C0E90033A4
:1031A000C0E90233C0E90433C0E906337047704711
:1031B00040B1C368587810F001001EBF1878B0FA0B
:1031C00080F0400970474FF01002EFF3118382F353
:1031D0001288BFF36F8FFEE708B5FFF7F4FF00F02A
:1031E00028B900F018B9D0E9003213605A60002302
:1031F000C0E90033704708B5FFF7F5FF437B23F0C4
:10320000020343730023836008BD10B54FF0100321
:10321000EFF3118483F31288BFF36F8FFEF780FE04
:1032200084F31188BFF36F8F10BD08B54FF0100203
:10323000EFF3118182F31288BFF36F8F83680BB1B4
:10324000FFF7D9FF81F31188BFF36F8F08BD38B541
:1032500004464FF01003EFF3118583F31288BFF398
:103260006F8F437B13F0280F0BD183680BB1FFF7EF
:10327000C2FF637B51B903F0FB0320466373FEF783
:103280004FFE85F31188BFF36F8F38BD03F0EB035A
:10329000F3E701211838FFF7DABF034620B9EFF34F
:1032A00005820AB9FDF726BB83F31188BFF36F8F40
:1032B00070474FF01003EFF3118083F31288BFF3D0
:1032C0006F8FFFF7EABF4FF01002EFF3118182F327
:1032D0001288BFF36F8F027BD2070AD581F3118862
:1032E000BFF36F8F404080F311884FF0040002DF7E
:1032F0007047437B1B0704D581F31188BFF36F8FA1
:1033000070470122FEF740BE08B54FF01002EFF300
:10331000118382F31288BFF36F8FFDF7B3FBF4E7DD
:1033200010B54FF01002EFF3118482F31288BFF34F
:103330006F8F03683BB1FEF759FF002084F31188BB
:10334000BFF36F8F10BD6FF01500F7E7FFF74AB8B6
:10335000024610B501448A42134603D01C7801325C
:10336000002CF8D1181A10BDF0B504461046C3F170
:103370003707FFB203F01F03082BE6B233D0102B40
:103380003ED06508A40844EA817445EAC1752D1948
:103390004FEA910242EB5102290941EA02716D188C
:1033A00042EB1212290A41EA02616D1842EB122225
:1033B000290C41EA02416D1842EB1242AD1842F16C
:1033C0000002EC0844EA4274D10804EB8402A6EB44
:1033D0004205EDB2092D0CD90134A5F10A0541F1E0
:1033E0000001EDB212E0E40844EA417406F007057A
:1033F000C908303554EA010200F8015BBCD1F0BDC8
:10340000240944EA017406F00F050909092D84BF57
:10341000ED19EDB2EDE70A44914200F1FF3300D11E
:10342000704710B511F8014B914203F8014FF9D1E3
:1034300010BD03460244934200D1704703F8011BBC
:10344000F9E7000001480068704700000C02002006
:08345000D4CCFF7F0100000055
:103458008905000800000000B50C0008E8340008E1
:103468009D0500080000000000000000FC34000872
:10347800090E00084C3500083B2B000810350008E1
:10348800090E000874350008090E000860350008A8
:10349800090E000838350008090E00082435000810
:1034A800611500089C35000861150008883500087A
:1034B80061150008B0350008B90D000800000000CB
:1034C8005D16000800000000090B0008000000005D
:1034D80059120008C435000859120008D8350008E8
:1034E800053A000800000000180000209B0000209A
:1034F80000000000713A00088C3800089038000875
:10350800AB00002000000000E739000800000000C0
:10351800000000009900002020020020123A000854
:1035280044370008A83700089D000020A0020020AA
:10353800203A000858370008A83700089F000020E4
:10354800B00200202E3A00086C370008A83700089F
:10355800A1000020C00200203C3A00088037000883
:10356800A8370008A3000020D00200204A3A00082B
:1035780094370008A8370008A5000020E0020020C2
:10358800823A0008A038000884390008AD000020FD
:103598004C000020923A0008EC38000884390008F2
:1035A800AF0000205C000020A23A0008383900086B
:1035B80084390008B10000206C000020583A000847
:1035C800F837000858380008A70000203400002009
:1035D800583A00082838000858380008A900002080
:0435E800400000207F
:1035EC0000000000292B000800000000292B000817
:1035FC0000000000292B000800000000292B000807
:10360C0000000000292B000800000000292B0008F6
:10361C00E53900082D0B0008E33900082D0B0008D4
:10362C00E13900082D0B0008DF3900082D0B0008CC
:10363C00DD3900082D0B000800000000292B0008C4
:10364C0000000000292B000800000000292B0008B6
:10365C0000000000292B000800000000292B0008A6
:10366C0000000000292B000800000000292B000896
:10367C0000000000292B000800000000292B000886
:10368C0000000000292B000800000000292B000876
:10369C0000000000292B0008DB3900082D0B000866
:1036AC0000000000292B000800000000292B000856
:1036BC0000000000292B000800000000292B000846
:1036CC0000000000292B000800000000292B000836
:1036DC0000000000292B000800000000292B000826
:1036EC0000000000292B000800000000292B000816
:1036FC0000000000292B000800000000292B000806
:10370C0000000000292B000800000000292B0008F5
:10371C0000000000292B000800000000292B0008E5
:10372C00D93900082D0B000800000000292B0008D7
:08373C0000000000292B000829
:10374400FFFF000000180140040000001800000002
:1037540040000000FFFF00000014014003000000CF
:103764001800000020000000FFFF000000100140CE
:10377400020000001800000010000000FFFF00001D
:10378400000C0140010000001800000008000000C7
:10379400FFFF0000000801400000000018000000C6
:1037A40004000000892E00089B2C0008A72C0008A8
:1037B400B92C0008C32C0008CD2C0008390E0008D1
:1037C400DB2C000800000000743500086035000898
:1037D4004C35000838350008243500080000000086
:1037E40000000000000000000000000000000000D5
:1037F4000000000000040040000000000000000081
:103804001C000000020000001038000818380008EE
:1038140001000000203800080100000044500300AB
:1038240000000000002C0140000000000000000027
:10383400180000000008000040380008483800085C
:10384400010000005038000801000000203003008F
:10385400000000005D1000085B2F00084B2F0008DB
:103864004F2F0008532F0008572F000804000000B2
:1038740040000000000400000100000010000000EF
:10388400000100000010000000100240712F000829
:10389400912F0008AD2F0008CB2F000800480040EE
:1038A400FC34000812020000C438000801000000C3
:1038B400000000000000000000000000CC380008F8
:1038C4001C00000000000400D438000801000000BF
:1038D400DC3800080200000068200300000000003B
:1038E4006D2003000000000000440040FC34000888
:1038F400110200001039000801000000000000005F
:103904000000000000000000183900081C0000003E
:1039140000000200203900080100000028390008D6
:103924000200000008180100000000000D1801004A
:103934000000000000380140FC3400088E01000043
:103944005C390008010000000000000000000000D5
:103954000000000064390008180000000040000066
:103964006C390008010000007439000802000000EE
:1039740024100100000000002910010000000000D4
:10398400D93000089F30000839300008211400089D
:10399400FB3000085834000858340008C8340008C4
:1039A400D0340008E8340008E834000800100000AF
:1039B40000304572726F723A2050574D206465761C
:1039C400696365202573206973206E6F74207265A6
:1039D4006164790A000A0605050401030102010174
:1039E400010001696E746572727570742D636F6E77
:1039F40074726F6C6C6572403430303130343030F6
:103A040000726363403430303231303030006770DC
:103A1400696F403430303131383030006770696F4D
:103A2400403430303131343030006770696F4034A5
:103A340030303131303030006770696F40343030AD
:103A44003130633030006770696F4034303031306A
:103A54003830300070776D0000020406080A0C004C
:103A640000080000000800000000040404726573EC
:103A740065742D636F6E74726F6C6C657200736520
:103A84007269616C403430303034383030007365E2
:103A94007269616C403430303034343030007365D6
:103AA4007269616C4034303031333830300000009A
:103AB40000000000000001020304060708090102D7
:103AC40002030405060708090A0B0C0D0E0F10105B
:103AD4006D61696E002A2A2A20426F6F74696E67CD
:103AE400205A6570687972204F53206275696C643E
:103AF400207A65706879722D76332E352E302D3309
:103B04003531322D67633035613438336261343294
:103B140035202A2A2A0A00286E756C6C29002A6628
:083B24006C6F61742A000000BF
:103B2C00FD2A0008C505000800000000312B000824
:103B3C000000000000000000CD2B0008F12B000855
:103B4C0000000000710C0008152C0008000000009B
:103B5C00432C000800000000FC34000801020000A7
:103B6C0000000000FC3400088B0100000000000085
:103B7C005400002000C201000001030000000000FE
:103B8C006400002000C201000001030000000000DE
:103B9C007400002000C20100000103000024F400A6
:103BAC00800000208000002001FFFFFFFFFFFFFFCF
:093BBC00FFFFFFFFFFFFFFFFFF09
:103BC50000000000000000000000000000000000F0
:0A3BD50000000000000000000000E6
:053BDF00FFFFFFFFFFE6
:103BE400000000000000000019240008000000008C
:103BF4000000000000000000D0000020D0000020E1
:103C0400690400080000000000000000000000003B
:083C14000000000000000000A8
:043C1C0015E015E0BA
:040000050800089D4A
:00000001FF
